:0400000068EF3FF076
:107E7E00016E01C08CFF120080C0E0F0F8FCFEFF26
:107E8E00C282C2B2FED7C450120052EC3FF0C4EC14
:107E9E003FF000EF00F0000E956EF19E7C80000E1C
:107EAE007F6E93805CEC3FF01200000E7E6E000E33
:107EBE007F6E7E80000EC16E380EC06E010EC26ED9
:107ECE001200860EF66E7E0EF76E000EF86E00EE47
:107EDE0020F010EE08F00900F5CFEEFFE550E1506E
:107EEE00FAE100014CEF3FF0000E126E000E136E21
:107EFE00000E146E000E156E06D0010E1226000E28
:107F0E001322142215221550800A116E0D50125C88
:107F1E000E5013580F5014581050800A1158D8B0E4
:107F2E001200EBD7000E096E000E0A6E000E0B6EDD
:107F3E00000E0C6E01A008D00550092606500A222C
:107F4E0007500B2208500C22D890053606360736FD
:107F5E000836D89004320332023201320450011036
:107F6E0002100310D8A4E6D709C001F00AC002F02F
:107F7E000BC003F00CC004F0120020EE20F010EE47
:107F8E0017F0080EDECFE6FFE82EFCD7000E3FEC12
:107F9E003FF0000E1F6E1F50800A780FD8B0F9D731
:107FAE0047EC3FF0166E1650016E026A036A046AC1
:107FBE000A0E056E000E066E000E076E000E086E9F
:107FCE0099EC3FF001C00DF002C00EF003C00FF0AF
:107FDE0004C010F07BEC3FF01F50010D170EF32480
:107FEE00D96E000EF420DA6EDF503FEC3FF01F2A00
:027FFE00D2D7D8
:020000040020DA
:08000000FFFFFFFFFFFFFFFF00
:020000040030CA
:0E000000FF081F1EFF0B81FF0FC00FE00F4017
:00000001FF
